:100000000C94F4000C941C010C941C010C941C0125
:100010000C94A6170C941C010C941C010C941C014C
:100020000C941C010C941C010C941C010C941C01DC
:100030000C941C010C941C010C941C010C941C01CC
:100040000C941D340C941C010C9422260C94A226B2
:100050000C941C010C946D180C941C010C941C0144
:100060000C941C010C941C011F101F101F10191060
:10007000191015101D102710171029102D102F10F2
:100080003110A62BF02B362C4029702CB82BB22B1C
:100090000D2C802CB92CB92CB92C642CB92CED2B3F
:1000A000E62BB92CE129B92C032CB92C0429E7291A
:1000B000B92CB92CB92CB92CB92CB92CB92CB92C18
:1000C000B92CB92CB92CB92CB92CB92CB92CAC2B16
:1000D000B92CB92CB92CB92CB92C682CB92CB92C49
:1000E000B92CB92CE32B6B02036E0203710203756A
:1000F00002037802037B02038002068602068C025A
:1001000003CC4B14ED4B88925C4A8F604B1E0C5F06
:10011000D1135FE48714C44B122D4B88CE5C48E4A6
:10012000604A44215F891364E5872BC34B12FC4B63
:1001300086E55C4B85604A273A5FEA135F3C873C63
:10014000FA4B14544B862D5C4A7F604CF64F5D3C55
:100150001361C18757254B14DE4B8BDD5C4F9D60CF
:100160004C17605DC61361DE876A204B13F74B8620
:10017000E85C48AC604A1F755F8613611B877F8D02
:100180004B121D4B86455C4FAD604A228E5FD713E4
:100190005F088B928A4B13D24B86385C48B4604A16
:1001A0003EA35FF3135F0487A9E24B12054B8B025A
:1001B0005C4FC4604F4BB45D8013642787BBB14B69
:1001C000141B4B867A5C48B0604C5BC95C91136031
:1001D0002387D0824B13504B86375C48135D46848F
:1001E0001E5DD315855B2EF84F6D301C187436BE1E
:1001F00097D02B089615FEA9C23E31710CB94BD190
:1002000063D99291FE7FC265227C2CBEE9F70F294B
:1002100086D143DBB39BFB8CF9A958F1263756FFF7
:100220005A8933F5478628CABE482087562A97BE82
:100230001FF297B838CA2B496ADD853B73D119F391
:10024000A31D4ACB6CAB6CDDA3484EDB745F591722
:10025000375F59A3C44A95C53C4863F855197E5F7A
:10026000D9A4C54A05F6384871F1AE860CCD2D12D9
:10027000DF2905E03D481DF26786FBBEC9A4C04AE0
:10028000E960D1A6B04D5519B85FCBF1DEDCE78E41
:100290003AA99B3ED9659ACA7912E029050E3C48D5
:1002A000803ECB6534BE45A58E4A053A9D4891DA1D
:1002B0005A753EBE48D1E229052A3C48773ED8749B
:1002C0005FB145A58E4A05563848A1EFB086EECFFE
:1002D0002D12E7741624DED8765F719CCCAFC9A2CC
:1002E000C14A0DC03FB91FF26786FACC2A12DEDA86
:1002F000E7F0CED80360D2A871AE13AB6D09B2653A
:10030000DFA991F1AC8686CF2F12EEDAEC0C5FDE1E
:10031000A1F1B08694CD2F126CDDA51A4EDB755F6E
:1003200076450D0169A4C24AAB191EB891EFAB86A0
:10033000B3A36DD16CDDA5367F893381C2751F0EE5
:1003400069A4C24AA65444893EF8C916865FD9A258
:10035000294A15C03F4891F1A9864A9E69A2284AB8
:10036000B5F0954891EFA986F8CF28128660BE684F
:1003700077B91FF26786F0BEC9A4C24A05EC9D4852
:10038000A0DBD916E65FC1347F3917765B891DF291
:100390009E8600A345A5AB4A8D0CA24824E0A9087F
:1003A0002EBECB989E29D5473EA78E418C0CFAD9FC
:1003B0002C98D4D0CA5707AD733FBA69FBD9199CA2
:1003C000BFD4F7484DC325E85E0FDCD45B936FCBF9
:1003D00096574ECF19F3181707CCB6A36DDCA44C73
:1003E00091DAF0F168172BE997C86EDB9EEC51A704
:1003F000233EE46B3D70D8F13777A61BA16D04F264
:100400002186EFCFC412ED381306DD79E15239654C
:10041000FE51B63048A88358DEC8A2DF3F862CC9FB
:10042000D894DECC6124B3D80DEF4A15DCDFA93EA9
:1004300087CC8EA677C899816A75CC5FB9937EDC2C
:100440009E4071160A3F189399426D41273F94DFF1
:1004500081D8E0EF681659CFB6A13DD954CD56DC0E
:10046000E0F028178BCCB6A32DDC64F8B2487BE50E
:10047000B965F2BED9F16CDDF84F35488D5F69651D
:10048000B0BE09F1BA2C9313777E7CE5C50C03D975
:10049000D798054A1B943EA9813EC9650FBA47A566
:1004A000387EF42426C29AE9E31075CF86A25DD97E
:1004B000742181D9E0EE511A77CD96A46EDB85BE0A
:1004C0009EA9EA3FC916DF5F8128F63D6152AE481A
:1004D000228231DE2A11CA92E66CCE2BDFC8A3DF5E
:1004E00025860FCFB5A262C97A68BE641AF318E4F4
:1004F000199196A22DDA8D62DED8115FD1A8D7AE00
:1005000047A5BA4B06E5DEDA115F511AC3CD96A4B2
:10051000DF2905805E48D13E22669ACF50122660C0
:100520001DD582D6015F5AA9C007B760E1CA0D0C7C
:1005300017B992DFDB06EA5FA4A25ADA87BDADC81D
:10054000F18B521A8B01A0E03DDA54DA56DCE0F16F
:10055000281892BE90F2DEDA9E58965E81522524CB
:10056000905F583546A28328DDC899816A75EFDF10
:10057000DB926CDD43649116FF2D2816B3CF41A6A4
:100580002DDC6410B24880E7C11202793E0EDEDE37
:100590001DBE50DD8694780AA0D7009AB8D2930B7E
:1005A000777E1FF28BBB8EDB70968458BCB2974867
:1005B000F0EF1816BCCB86A43DDC71BA50DDD160DB
:1005C000310632BEA7205D686F92A30631DF7A063E
:1005D000795F012CB7544FD681D8E0EF511A11CD75
:1005E00096A44A4A026632CA9985C0826CCBD14031
:1005F0006CDDFAC571CC49E7920EA0D747A587807C
:1006000093951C7F90E1B708D7CF86A266DEB49D94
:1006100061DB60F0A81779CC36A3EDDB248FF1DB2A
:10062000D0F01817FBCCA6A35DDB94B841DAE0F15B
:100630002818FFE997C887E0948FA6DDEF1D58437F
:100640008DE15693DEDA9E46C1C8A9755175989E14
:10065000C692667895B5C7A8A1FD3986CDC1B91EE9
:100660006F6D6D3AA00694DFD1A863AA8AD1E42900
:1006700005EEAE4892FD3992697AAC6F5C98C5FF81
:100680000FC9535FA083859ED600E7631E87CBDD2D
:1006900098F2DA1915CAD819F8CB0E19D8A991FD14
:1006A000398623C1B91E6F6D6AF7A00673DEBC05DB
:1006B000E35F3E0F61092458F753CA68FE1919CA4F
:1006C000F8A5FFDD36CDE2CBBCE0CF654CC1B91259
:1006D000DFE875DE4F6DF6BC47D41EDE9C91744A90
:1006E0005C1F5D89B04D729FD1547CA585DDB67BC2
:1006F0007FDD42668707DBDC29F3DC2D53FC5FDFFF
:100700001FF29CB8854F4BD1CF75E2CB2648FF6ACC
:1007100048A1E55FA36C5B9804187EC842DFA3077D
:1007200069DC3593C9CB63A593CB7140C769E05FA2
:1007300048A786D0BEB250DD6491710A05DBC13492
:10074000773C7C423EC882DFABA03955C138D546E4
:1007500005C4C6661FF2BEBBC35FE512BE29F5BF66
:10076000DEA9A8425719BC6B2212DA4AA58D6EA9E0
:10077000BA5F5719A26BCE1065097C81AEDD0856B1
:100780003919F57A3AA55F09F6A57EA9413E896730
:10079000C1BA8E12144A93037B7E985B5D45BEBE40
:1007A00079F1AD30D8419948C75F57197A6B512715
:1007B000B2394DB2DB10AEAD75867D5FFF126CDDD8
:1007C000CCF7AC4871E9E30741DCF59309CBC34DA5
:1007D00073CB7140C769185F48A76CDDD8EEAFA92D
:1007E000907051451C5FAC6A5B98060BCBCCA26F36
:1007F000C96577D9C692EDA8147A7A869C44DB65E0
:100800000ECAD0246CDD652ADED8FF605719267920
:1008100059A3224FAE8351FF09F2274413E084D03D
:100820003DDA54B241D820EF4815C5CE96A12DD956
:1008300044A1F1D9B0EED81547CE26A1BDD9D4AF89
:1008400061D940EE511A49CD56A42DDC64DE8248B0
:1008500022F4D616C8CF5BA84A4AAFDA7C6A3A4F70
:10086000F48604791E0EBEDEFB460DDF1EEF661613
:100870005DCF75A2B4E0C5780F56737DBCA42DC8BA
:1008800004A4BBDCF21622DA67F58EB4DA712E40CE
:10089000D570EC6E24DC25F47616A6CF5CA88258C1
:1008A000BABE06DF4DF17718FFC9A51246CA7E2EE3
:1008B00058C908DF29B27ACF99F123A262F273CC2A
:1008C00068F4B516E54F28A63DDA545A41D820EF12
:1008D00052191DCD96A44A4A0D5CC7CC7979C290B5
:1008E00068793E0EDEDE1DC850DD8694740AD2DBC8
:1008F0000496BCCE9361777E1FF28BBBB3D70F2CCF
:10090000B370CCFE0EDC576DA0A452D1069CEACA8F
:10091000229016526A69AFAC4FA329A6D478FB3057
:100920003B66658D8DAC6DD5159CCBD403A681D867
:10093000E0EF511A54BEC1F7EF2993AF9348723ECE
:10094000CA6DD3BE47A52B4AE7A9D4A0A23E55192C
:100950009D5FCAF1DEDC4356DED8125FD8C477AAA9
:10096000CFF16CDD8251DEDA125F6916B65C79A2D6
:10097000394B4E723AA8813E5719DA692B20D1685B
:10098000F512E94871F1FF8608CF9513EEDA628D12
:10099000D646AA7DD1940F412CF1CE299309FE7E33
:1009A00081F1FE86C4CDFD126EDB38AA56DC60F004
:1009B000A817DDCC36A3FDDB342BE1DBE0F02817F4
:1009C0002FCCB6A36DDCA45491DAF0F1C916CF5F39
:1009D00051276A392D15D1FE09F2A9161D5F39A2DA
:1009E000204A145CD4A2A23E5719EA58E9A21D4A33
:1009F00035609E4831EF1F87C8CF9E136CDD97C7C7
:100A000012A9A7F3D01A71CB2EA6A8DE56FAC548B4
:100A100081F1028674CDF112DEDA5F19CED8EC6076
:100A2000719C1B59ED05DEDA8528D66A324FCA65FE
:100A3000B0CDFA126CDDE135DED8C95FD916875F1B
:100A4000CE43F08949B5DED8D45FC9ED5E9EC9A218
:100A5000114A0D70DFB991EFFF86CACFFE12E06038
:100A6000186612BD1FF2CF8778CCFA12DEDA486E14
:100A7000D13E91F10C86F6CFF112EEDA3E7CD87BB6
:100A8000F33EE78C88AA06D17EDA5D896ED8EA60EB
:100A90008916515FCB28F150996D1E2D121E9800BA
:100AA000E0CD8A127EDA61A56ED8EE605B9BBD5800
:100AB0009D069ED939B40ED9C65FCD9A295B6501D2
:100AC000874A07D4CD4E1D5275865ACE5012692FD3
:100AD00096316BAED48C7B650B70AF12C46DDC238A
:100AE0003EDD878AD5B46A47C026463D7DECDEC828
:100AF0009981F2751CDEE9A23A4B356A834B43F5C6
:100B0000E905B3DEB83DF54A939D4C71B45FDB86D1
:100B10001ECAFD488C62C41EAB4846E16D08190030
:100B200056607FDF64EA81D8E0EF681623CFB6A174
:100B30004DD964A391D9D0EEF815A5CE36A1CDD963
:100B4000E4D111D919F36916F75F79A21E4A9759B2
:100B50004D4FDD52619B4F58FD051A4A0D7A29B45D
:100B600091F3E1B438BE2F20D5680D74C7566BF3EE
:100B70001A7C36797E0E9EDED95650DDC5957918E1
:100B8000575C69A4344B8D124EDBD45FC916CC5A26
:100B9000C82261090675DEDAD45FC9163B5CD9A2AA
:100BA000064B0E88D7BD91EFF2873ACFE313E77477
:100BB000DE45DED8BC60D916145CC03C873D052EEE
:100BC0009D4893BEC918055FC9A2214A7423ACA9E8
:100BD000A2EFE2A8A5AE961209A036D2C2D8A26FA3
:100BE0004A45663E961203A036E0C2D8A26F4A4537
:100BF000783EDBF140887EF007BE91F10C86F6CBA3
:100C000046A47DDC8104DBC8A7DFB1A07555E212E4
:100C1000C470DCEE3EDC878D49060BDF6B9291CA17
:100C2000C52E0F56737DBCA468DD1894C0CCF8ACFB
:100C30005AC9151EBE1A51CB1EA6A5DE8FA98CBEA1
:100C400067E18E085BCF46A266DE814A28CA76E15C
:100C5000F48634791E0EBEDEFB765AC9151E8D94BD
:100C600035412F30D5688FF38CBE51E19A080CDDE9
:100C70003A9466DE14E7C1DBC0F00817B3CC96A344
:100C80004DDB8411E66791F112864ACE65152ED9A7
:100C9000B295BED93F623915B75A2140CE29057F9A
:100CA000CEA91FF2BEBB86B576F19F2BDC4E50DD80
:100CB0003A95F086225F47A5387E932F197F81F100
:100CC0001186A2CD8E12C976F529DEA9A13E57194B
:100CD000A36869F18E29C6310BAD1FF272BC955F16
:100CE0001512054A1BE49948C75F5719C56963FD8A
:100CF0009034D01B04AC1FF272BC615FE512234A32
:100D0000390050DDEB9357194F6839A4244AE59C0C
:100D10009B4891EF05879901C9A4224A848DB1D9D6
:100D2000F0EE18159BCEE6A1FDD914BB56DC00F001
:100D300048173DCD56A42DDC64AAB248B9E3020A97
:100D400048DF50926EE0A6B35F5C22635279C79E83
:100D5000A39159C96641D6A90964F5799B5F49A158
:100D6000224A87A3D646AA7D531988A96B38917069
:100D7000AD6A674213755C8C54AEC928EF50A18BE5
:100D8000D248121ED28606CF8012E66C8E793C893C
:100D9000AE5F57196F6969A2234AB50A9848513E58
:100DA0009965ACCA9F48254A2F8EC9B4B1F303B4E4
:100DB00098497018A850E0B04AB9113E5965165FBD
:100DC0002F38B546E5502866878DAEB498710D383A
:100DD0006ACAA25270C850DF4D9CCF596F18955007
:100DE0001915DED8D85FD916205F41207768A6F2A2
:100DF0006F541DE16608D8DD76949E60D6FA3C4EAD
:100E0000846505751E9E0928AF50E70C2D4EBD5216
:100E1000C916D55FD9A2264A8D02474232677A8E1B
:100E20002CDD54948CCCC4A45A5E26656F8C195961
:100E30006D05AACCE2B630CA90E1950661DF279233
:100E4000DDCACA6C0866788DC0AC2DA333A6B7D0B6
:100E5000CDD659892F7268894CAE49F16E299ED83A
:100E600056CEF0EF181679CF46A25DD974FD56DC48
:100E70000D5F5A0764DC5D9373CB9BF949CB22E489
:100E8000590B8ACBC9A21B4B0DAA47B9990FC9E8C8
:100E9000929EC1C2EDC50D2E4EDBCA5ED5651ECD3C
:100EA000F111E2290536E2499B3ED965A2CA3845CF
:100EB0006EDB50B24EDBDB5F511A20B269A21A49D9
:100EC000AC3C5089A2AE1A7CD8CCF5117EDA4FCE5C
:100ED0006ED8DC5F78E4E91179A4294AA54E9448DC
:100EE000A1EF02857C490001DEDA4FEACED8DC5F53
:100EF0004A1B62CD8212DEDC4FF856DCE0F111B401
:100F000084B4C9A41A4945F85489913F57195359D3
:100F100089A4194909FDDEDACD5EC969159EC1F1C2
:100F20006CDDE2249EDACC5ECD6DAACDF511E62A09
:100F300054A052DD6E65C918835ECDF9DEDC413FF9
:100F4000D6AB1DF2A68C89CD8140E66CAEBDDAA58C
:100F500091F10585D4BB4DD1E23105C8E2499943F1
:100F600057193F59C9A2194946785D89A547D9182B
:100F7000CC5E86A266DE54E581DB00F0481771CDB9
:100F800056A42DDC64165E99DE15273CE65FA9A108
:100F9000284A75039548996DCAE5F3DD33946CDDF5
:100FA00003A6DFA9D9781A8DC1DF4F40D8CA9C802B
:100FB000D1A6D974218BC7AEC8F11F5D56B957BDF4
:100FC000913E57196759B112DFDC14CAAFA9E07816
:100FD0001A8D3C91C8F17EDA4FD86ED8DC5F2B9B1E
:100FE00013584001DE29947751D9F0EF1816F1CF4C
:100FF00046A25DD9746581D9E0EE511A33CC96A32F
:101000005DDB949041DAE0F1281815CC84C83C00EF
:101010007D3F34489A5FD19471DD47A5DC50EE9E48
:10102000D8661FF2E48C8E5FFF12ED7694BD81D8F6
:10103000E0EF68163BCFB6A13DD954AB52DDCC658D
:1010400018189DCD56A32B0063FE7FA9413EF7865D
:101050001F0116606CDD8350D7C820EE281691CF93
:1010600041A66DDCA4F691DAF0F14955A1E997C8E3
:101070005EDA4F724ED8DC5FD19430DD20946CDDA7
:10108000038637C8978D571913590392E278931B3B
:10109000C54E9547C9182A5EC8F17EDA4F9C6ED8B6
:1010A000DC5F4B9CB7594001DE29943B51D9F0EFEE
:1010B0001816ADCF46A266DE742BA1DB20F16818AE
:1010C0000FCD96A46CDDB9F3CEDA105FC918305F8E
:1010D0008AF532290B34B667933E41B3DEB158F13D
:1010E000C7DAFE72D66E885BC91A727147A5D37FC4
:1010F0007CF03FDA82F1CA1869CD3612564A966DF5
:101100004FDB22F05A17895FBDF1277D640A1FBEAD
:10111000934CDD6584CD4A13DEDC871981D8E0EF7E
:1011200068162DCFB6A14DD98DBCDC79B94EB1B4BE
:1011300040BEC9F1EE2993A32B7F313E79657EB481
:1011400018F56CDDAE72C548BD5FA9653CBEC9F936
:10115000FD2C93C7847C151EB67126B2C5F5FB2CF9
:10116000E5F2B04881F13886E8CDB912EEDC766E52
:1011700071AF433F8C652CBD47A58780E5EEB44831
:1011800081F1348604CDA512EEDC728A56DC40F083
:101190008817DDCC16A3CDDB040BD1DBB0F0F8173C
:1011A0001FCC86A33DDB7435A1DB20F1681861CD2F
:1011B00096A42B006302FCDE2014411962E146CFA5
:1011C0002B08C552174D61EF9389AC791E0EBEDE18
:1011D000FBFEDED8EF5FD916075FE9A23E4A354E27
:1011E000BF48956DDEA44041FE30DEDC63ECCEDA14
:1011F000F05FE918145FF9A43F4AC56A154D61EF25
:10120000958964791E0EBEDEFB26DED8F35FD91603
:10121000F35FE9A2424A3586BB48956DDEA4B8412A
:10122000FE30DEDC6724CEDAF45FE918C85FF9A48B
:10123000434AC5A2134D61EF97895C791E0EBEDE4D
:10124000FB6EDED8F75FD916AF5FE9A2464A35DEFE
:10125000B748956DDEA4F041FE30DEDC6B5CCEDA83
:10126000F85FE9188C5FF9A4474A65FA8F4F013E91
:1012700034DF8C11C992DF79568DFCDF20144119BF
:101280005EE146CF2B08641691D830EF581671CE28
:10129000A6A13DD95405E1D9C0EEE81513CE36A17B
:1012A000CDD9E43311D950EE7815A6CA9B33E7792E
:1012B0008E41F18891EF0D8B3C6E40059D0DC85B12
:1012C0003A67553EBDB396BFCC3FB0291AE336A46A
:1012D000B78CAA65627033F14577F73BA967F73F92
:1012E00017B300BE973FAF7558E853D82EEF8686E8
:1012F000045FC8A2EFDAD4F656462A7D1E86F3CDE7
:1013000054A4BB4A7B043FD882EFCA169DCF261255
:101310006CDDC72558522869208617CD54A4DB4AB6
:10132000D8B5EDA96C702954A8CF4B13EEDA882DEF
:101330005EDE8A4F4A1CA6CD4A13DEDC873F68A8D2
:10134000F48C7B65B77043F170297D4A3FD882EFFA
:10135000D886DA793E0EDEDE1D7650DD8694736522
:1013600057B30AFBB92C93F3777EAC5FF586B95F70
:1013700024A2DBDA12E4C2D81FF2BBBA8B5F28A426
:10138000CFDC0610CFDA905F3B658A6F5618473F77
:101390005A52DED82760D9168F5CE9A2764B350EFB
:1013A000474B9EE5E70C09D9F19CBEDA61AC2ED81B
:1013B000EE5FD1ACC3A3C9A6F678932F2B7F5C5FF9
:1013C000A58602CE57132ED9A4CBBED931603915CC
:1013D000F15C29A2364AF54687489985C0825ECBE2
:1013E000D1406CDDFAD337C28BE9D41070D5EC1242
:1013F000F24AF27620CCA0E3E10EF4CA6048894AB2
:10140000C10077C04BE7940E54D78E12144A939BB9
:10141000777EAC5FF586D55FFB126CDDF62837CAA8
:101420008BE1D408B8DD09A1784BD5BB454B71EEF3
:10143000658742CE5413BEDA5F382ED8EC5FD1AC4C
:1014400037A3C9A6F67893D32B7F7EE9C710C1D501
:10145000D1A0034A19549D48C35F571975690212F8
:10146000BA4AB2EA60C060E7A112AD5FFF126CDD5C
:10147000AE46C548BD5F0E86CC5F47A5CF7EF2FC69
:1014800020CAA0E1E10CAFD7739AA9D2E1049D482C
:10149000C35F5719BD692212DA4AB21260C060E711
:1014A000A112CFDB3796EDCE1D2050DD3A95E486B4
:1014B0001C5F8E12144A93232F7C7AE5C30C35D916
:1014C000D5989ED973C40ED9005FA9153C5F39A188
:1014D0004F4A0542B448A1EF34867ACFA5120EDAFE
:1014E00072E0D1C6A901F22852FD4B006F2963EECC
:1014F0004FDFCFEDF61415B5BBF15CD47276D1ADEC
:10150000A53EE3108DD5E3F110293F84F7C6373FA0
:101510006BB330BE7B3F7BCF6E94A4C472EFBA1620
:10152000DAD1A0A0E670FCDADEDCA98D57195B6881
:10153000EA12F04A93A1777EAC5FF586ED5F24A2B4
:10154000DBDA12D2C2D81FF2BBBABB5F2994CFCC70
:1015500007D2CDCAE95FD615C5CEE4A11AD972D299
:10156000A0C4D2EE1A1587CEB8A15CD872E27EA9CB
:101570004142956E21B28E12144A93EF887C985B9B
:101580005845A2BE79F5AA32DA6D9948C75F571956
:10159000B5695127B23D3577FEAD0D472E69979E4F
:1015A000F9F1FE2D814CBBA5151E05B20173B73EA6
:1015B0004D76B43E66E85AFFA326D1713340ED78EC
:1015C00023EE50DD3A95E486645F8C12124A935BF9
:1015D0002C7CE95FB618ABCDC4A4FBDC12DCB3C035
:1015E0000FE72A1515CEB79C4BD4937F1C7F7F6BDA
:1015F000C8A25BD7F39ACBDC026AE4C2BAE9060A56
:10160000BF01F4984229B3096F55C48E52758A916F
:10161000DCD3E4798EE565881FF27DB93CCFB71243
:101620008EDA8422E2487379BC905ACD0413BEDC72
:10163000D133CEDA105FC918C65FC9F1EE2993AB7A
:101640002D7F31EF798976CF78159EDAB7490ED89C
:10165000446257197D692212DA4A135A511630AD85
:10166000E772CB70D8F11777D368A3A9A06CDAA181
:10167000A55F24A2DBDA12E6C2D81FF2BEBBD95F97
:10168000DF126CDDAEB2A64872F1BA180DCDD8A447
:10169000ED4A5A9243DB2EF0661787CC1412465E51
:1016A0007EA46FBE91EF5F8738CF5E13FEDA9DADEB
:1016B000EED82A60D60C28D9E69816D4C52D444B0E
:1016C00061EE6487A4CE5513CED9A2C9D7C9ABDECB
:1016D000F4056EDEC9A27C4B1548414BB1EF69871A
:1016E00050CF6813E7D41F6CF5C2CDE9D20A74DB82
:1016F000E2961ACE127EC0C2C0E90114D5D7739A01
:10170000A9D2E18A9B48C55F571923692212DA4A98
:101710002810CC487EE7C70E97D7D19E6CDDAE2847
:10172000C548BD5F1086905F47A5CF7E202CF2484C
:101730007EE3C70ABBDBD19A6CDDF70E3EDA276089
:10174000B918555CC9A4764B15DA474BDEDE270580
:10175000BFDEB19587D2BFDE15C06DE71086E85FAA
:1017600047A58780EEEA24C69CEDE51441DB779619
:10177000ADCEDDFA33C08FE7D80EE2D347A5878020
:101780002080F2487AEBC31203D3D59E6CDDF7BA02
:10179000C548BD5F0C86245F47A5D07EE50E444B4F
:1017A00081F1648724CD5513EEDCA2A9FD48A35F27
:1017B0001086045F47A58780B0B862483EE3870A79
:1017C0008FDB119A234A39C650DD3A95E486625F71
:1017D0008A12104A93412C7CAC5FF586B5D7339AB8
:1017E000E9D2216A50DD8293A918F45C39A47D4BBB
:1017F00005627E4BA1F16A87D8CF6F138EDAACFDFC
:101800001ED8396099162F5C8C12124A9399777EF4
:101810005C5FA58634CF6B138EDAA8191ED83560AD
:101820009916075C8E12144A93BD777EAC5FF586DD
:10183000F55FFD126CDDF60235488D5F6916145CAC
:1018400079A2894BC5D4724B61EF768721D7379A3D
:10185000EDD21DDE50DD3A95E486F65F8E12144A15
:1018600093F52C7CAC5FF58608CF9D12CEDA5A6ECC
:10187000DED8E75FD916A15F47A5D07EE5EE8A489E
:1018800081F11E8604CD9F12EEDC5C8A0988948E5D
:101890005275EB9E29A2784BF508454B91EF658771
:1018A00030CF54131ED9A3A58ED9306029158E5C74
:1018B000B9A17F4B20B4F2481FF272BCF75F15123A
:1018C000054A1BC29948C75F5719E369D2120A4AF1
:1018D0004AD0EA481FF2BBBAB8CD9912CEDC56DE28
:1018E000DEDAE35FD918355F47A50F57F0EC2248E1
:1018F00071F1158684CD8412DEDC53FACEDAE05F16
:1019000069161C5C79A27D4BC5987E4B61EF6A8796
:1019100070CF5313CEDAA015DED82D60D916035C34
:1019200047A5615715B6174B91F191878B5FDF1271
:10193000BE29F5D3DEA1B0415719E06BD2120A4A95
:10194000E5D0484B81EF6087C8CF5113EEDA9E4D4A
:1019500050DD146CD918115CC9A4A44BA8B567A6B6
:1019600053409E6904CF9D12CEDA5A6ADED8E75FF3
:10197000D916A55F47A5878093ED1C7F81F19487D9
:10198000E0CD0313390909B757B9E91EA916985CC8
:1019900039A2754B0504464BA1EF6287075FE5123C
:1019A0006CDDAE947ED8E15F79167B5F09A2304A88
:1019B000D5208D481FF2BBBAB6CAF81FC94A01BE6E
:1019C0003EDA135FB918C55FC9A4624A155E5B4869
:1019D00091EF678744CF5613FEDAA5D9EED832606F
:1019E000D6107CD5E69C16D805799248A1EE1686CD
:1019F00050CE87120ED954F6FB48A55F0586335F9B
:101A000047A58780F28220CEA0E5E1106CCD7B1344
:101A1000CEDCB811DEDA4560D9182F5C09A1784B0D
:101A2000D5B1454B71EE658758CE5413214A372EF8
:101A3000CE11B65FDD8638CA6048A94AE13C3EDA7D
:101A40004760B918735CC9A4964B15D8674B31EF42
:101A50005F8762CF5E139EDA9D5B0ED82A60108688
:101A6000D65F47A58780EEEC24C29CE9E5100ECD39
:101A70006B13CEDCA877DEDA3560D918595CEE122C
:101A8000F44A4882EC481FF272BCA15F7512BEDCBA
:101A9000AB932EDA3860C918B05CD9A4874B2C9E62
:101AA000C8487EE7C70E29D7D19E6CDDAE9A3EDAD4
:101AB0003B60B9189F5CC9A48A4B1528734B3EE361
:101AC000870A8DDB119A6CDDAEFE35488D5FEE86A0
:101AD000445F8A12104A9343777EAC5FF586195FA4
:101AE000FF126CDDF6D03EDA4B60B918D75CC9A4A2
:101AF0009A4B1560634BB65FDD8693D7339AE9D274
:101B0000218850DD3A95A918365C39A49D4B059C77
:101B10001E4BA1F18A877FD7339AE9D22194CE1147
:101B20003EE3870A6BDB119A6CDDAE1C3EDA536034
:101B3000B918715CC9A4A24B15AA1B4BB3F4583B4E
:101B4000B8CA97D06D0752F881D8E0EF681641CF38
:101B5000B6A14DD964C591D9D0EEF815C3CEC6A1B2
:101B6000DDD9F4F301D960EE881545CE41A62DDB11
:101B700064E3B1DB10F0F486D8CF4F123EDA867DF5
:101B8000C248CC85F08236CB47A55980F08C2248DC
:101B9000AB5FF7B42F79EE0E0EDE930FA57ED76CF8
:101BA00020A34A40B02F55297A3DB9DDE8F210193B
:101BB0004ACB9808244A8427B1D9F0EE1815B6CB41
:101BC000EFF1F3DE0C50F4DCF25545863379AF6665
:101BD00054911942C11EA1F14A875A02A1404E29CF
:101BE0006BB4A801F5EF38DC08CD4F12477884C8F4
:101BF000B9B401F34084F59EB8A63FDE76F4BEDAB0
:101C00001160511A0CCB06A3BDDBF49921DBA0F0C7
:101C1000E817BDCCF6A32DDB648BB1DB10F05818B0
:101C20003FCD86A43DDC85F75E99DE15273C055F38
:101C30007512A74ADF347EA9413EF28632CA6C484B
:101C4000D14AE742465F354E407FBACABE094EDDF3
:101C5000A5B16EA9BA5F0E86EC5F47A583802C5EA6
:101C6000C848985B6445A35FFD126CDDF65837CA1F
:101C70008BE1D408E8DDEE12F44A4A7AEA481FF212
:101C8000BBBA195FE512C7CAFF08D5C8ADDF57193F
:101C90004A6B2212DA4A857746A92B1E0E862A5FE6
:101CA00047A5D07EEE2624CA9CE1E508095FDD1237
:101CB000254A3BB250DD8293E486165F2092D8CA53
:101CC0001040C2C81FF223BAA35F35125E299D2EB1
:101CD00078AE504C987485BA8E12144A9349777E28
:101CE000B85FDF86EACA6048054A1BEA50DD3A95CC
:101CF0009486AE5F6BF19C38D4180BADD85FFF862D
:101D00000ECA6048F94A31069B48C55F57197F6B78
:101D100047A5A07FFD14B847087C69652CBEE0127A
:101D2000214A372250DDE793D0842F9EC138F770C7
:101D30001328C140121E108637CE46A16DD994AF2C
:101D400081D8E0EF681649CFB6A14DD964DD91D9AD
:101D5000D0EEF815CBCEC6A1DDD9F4CB01D960EE1B
:101D6000511AADCC96A34DDB84FB51DA30F1D48609
:101D7000EC5F7CA685DE9CE259DC67460EB324BB93
:101D80009C3FB52C6AAB01AC068C099F5D54AB1B24
:101D90005153A5736EA9513EA86894CA6048054A7C
:101DA0001BA050DD3A95F0863E5F47A5878020AEA8
:101DB000F248713EB96536B2D6F46CDDF688C54896
:101DC000BD5F1086725F47A58780A45A51D810EE78
:101DD00038150DCE86A166DE81D895487B3EB96563
:101DE000EECAC548C4D40F0736D6C15F5AA99BD5E1
:101DF0002D9C66DEB46761DB60F0A81793CC36A338
:101E0000EDDB2491F1DBD0F01817D5CCA6A35DDB78
:101E1000948241DAE0F12818188E49E12B0063A87A
:101E20003B7F194EAD6BDA5F2E9C647895CD7AAF0F
:101E3000413E69A005550DF7A0E8353A1DD6816BE6
:101E40005AA938DD2094E2D11AC1FF65C28A65869D
:101E50009172983DD44AA1D545CB71488FB338B61D
:101E60001F3FC46DE8F12F65FCDF450682C1891272
:101E70004DE8157ECE442282C924AA5FC8B00E5612
:101E8000151EEE4422827206B2DFEB2011682C8E02
:101E9000C8481FF262BD355FDB126CDD39AAAF485E
:101EA00032F17A18BB5F62929ACAB4F461064DE1CE
:101EB00074087A52902D486580A574794263EA7B54
:101EC000CFCE46A16DD9945781D8E0EF6816C1CF27
:101ED000B6A14DD9644591D9D0EEF81543CEC6A12F
:101EE000DDD9F47301D960EE8815C5CE41A64DDB6E
:101EF000846351DA30F1181827CDB512F94A0C76FF
:101F0000D66A1A52A145674B3816673DDBCDD548D6
:101F1000885D4D451479583864649C1018C0D58D7F
:101F20001965EA5FF7126CDD111E3779D14E2B0D62
:101F3000C3D6C0F1A6E8852E4F4022828D0E6BD706
:101F4000072ABD5289DA9E4816FDD99258C1D91E7A
:101F50006F6D435250DD9D95B79225436CD1D5707E
:101F600030601A46667D9794374193126BDAA1FE72
:101F7000854822F4F394CD41E7201D68D2EC02D8C5
:101F800051799A90CCC1F912A7E8F58606D6816BF3
:101F90005AA9595FF7126CDD11AE3E46827D5F9BF8
:101FA000B7585D01BF29F54769B61B1ED1AC37791B
:101FB000CF2CF5548B759548151EC9652CBE48D19C
:101FC000294A645291D830EF581635CEA6A166DE64
:101FD0009345024B09F2716550BFD9F16DFF7D4BFE
:101FE000F6DC91F1A985E9E069A4BE4984227AD1A1
:101FF0003DF8D36564BE47A5E97D084ADCDC92CE96
:10200000DA658B79C9A4B14B8D9CDFA991F1498622
:102010001CCAA93EA678D5F7A44842F536B5EF5BB1
:1020200011064AA5846A52DD06955519527F45A5C9
:10203000C26D93A7E5511DF2968634CAA120CD3812
:10204000ED4ED5AFA33E5719954A45A53E7691DB97
:10205000355391EF4986D74F4BD16ADD8A4D52DD1A
:102060006D60CA65F4CF3313EF5A058BDEDA8B60EF
:10207000D46BE0BE45A5F75C8DECDED86260D91666
:10208000D25C55AC85098B10FEB991EF9C870F4F40
:102090004CD1DEDAD597D11691F199878CCC1A13F1
:1020A0006EDBD7A14EDB62605917E55C59A3AC4BE0
:1020B0008D24BED8616037A811AFC9A2AC4B152ED4
:1020C000114B12F4D918895CC9A4AC4B0CF4CF4C59
:1020D0009952511AD5C8D9A4B04B05480F4B21F0DD
:1020E0009887F2CC0713DF8216A9BEB991EF2C872F
:1020F000FCCA43214579BD03AEA9F4B046D47EDFC6
:1021000047A5685991C5B4796252D46B9EBE47A564
:10211000315D10F5CCA91FF2E29814CAA1206EDB44
:10212000D52356DC19F3296DD8BEC992DEB305ACB0
:10213000BEA2013EC906B636C99466DE65D6AEA912
:1021400091DFC9E7C4DDCDC6DEB309F656DCE0F1A8
:10215000CD36DC3ECDCAE8FA0D3FD4F0960FCA0466
:10216000E5E7C2C2E5C210DE4EDB9C5E5917E45EB5
:1021700059A3E74995E7D64921F0FD856CCCFA11C2
:1021800076059C3FDED8915E09163A5E8983DEC1F2
:102190004DBADED8185FCAB5C9AAC9A4DE49050C74
:1021A000DF4991F1F98526CDF811E206976DD7A99F
:1021B00091F1C9853CBEC9A4DF49052ADF4993BE18
:1021C000C918435EDAF1EEDC35C9DCA991F1FA8574
:1021D00044E3CCCEA3FEB546DF4931EFFA85CBE22E
:1021E00059A3DF499577EF49271ACB657CBED9A45F
:1021F000E3490560DA49953EC918485E0CCE8EDC8D
:1022000006017EDAC25E57199A6A85348739939B34
:10221000CD59E0EF5519884E86A266DE158C5948D7
:102220009A756A75A4CD4E126ADD2C3B56DCF146D8
:102230003965B2DFC686DECC65D2AEA991DFD8FCA7
:10224000C0DD41A63E3475A7DEC8A0DBC908CAEBD5
:10225000C686E2068DC0DFA919F3181883CDA51232
:10226000EDCA06725D891FF26096689E47A5805A86
:102270009FF381D8E0EF511AB7CD8DF7C129059EA4
:1022800050DD3166CFBDDFAECDF2EE2993192F7D43
:10229000D2AEEA7C84CC82126EDB4F9A5F89D23E4A
:1022A000D5B46DCF41A62DDC643AB248578DAB65ED
:1022B00030BF47A58F5105269C4FA09D8279F4DF42
:1022C00028F1DE2A645491D81DF27A8D13CF86A2AC
:1022D00066DE61D249DF5DEF601C5C71D9F170DFB1
:1022E000C1704CDE36436F948E0BB512449E7BA7B3
:1022F0001F58311ECD1675C189126F6D156ED649E6
:10230000F38D3965E20BBF5942DA979DD2D823F598
:102310003124D25F5835EEDC3819B866013E2FDA29
:10232000D616ADA270DF11B6B6D6015F5AA9DECDC2
:10233000C31166DE09A4DDD6D15F5AA9B571C9A65D
:10234000DEDC3943BC66013E2FDABC16ADA270DF7D
:1023500011C04CDEF9FD0986497AC040DEDE0CE290
:10236000B866013E2FDA9016ADA270DF11FCB6D62A
:10237000015F5AA9FB71C9A6E6068DEEA24893DF5C
:10238000D1A803AECA9284CAB5697646427BCD060F
:1023900005DF61209768B4A86F4C2A4E5975B1B11A
:1023A00079F180CC8D3091DAF0F1358623DFC822C7
:1023B00061099327CD59131E5719244EC292E8CCB8
:1023C00053C081D8E0EF5519764FB512E52964CE98
:1023D00043DB9BF3327C57BDD8F1EFCC055E39CAA5
:1023E00019F37065185F58A388DE6E1C73AA423E0D
:1023F0004586C3DD699466DE946A41DAE0F1281807
:10240000EC5F2CF1DE2A93937E4126444A65065107
:102410000392BF2905F450DD4266CA961F9E58619B
:1024200017408CE31E66733EC96624CA7819E66CB1
:1024300036C281D8E0EF681637CF41A65A4AA8BE07
:102440007CCA1DF24596BA5F5B936ADD815C3EA94A
:102450009444DB655ACAAC22BF2910BECCA91FF236
:102460002E96E6BBDBF16ADD7678E1DBE0F028173B
:102470009FCCB6A36DDCA4E491DAF0F1495561CCB0
:1024800084C83C003BABD4488D5F0AB109BC913F86
:10249000295DBE621DA9613E0086545F48A76CDDC0
:1024A000A99915C8613E4186C8DF3892E7CA1F2E38
:1024B00050DD4B96D4064E5F69928FCAADB26F5411
:1024C00042E169085DDFA04058CAB3E4775239752C
:1024D0006179F3CF9B1F5718484DADA9006C3AA105
:1024E0003791C43E6DD9947751D9F0EF1816F1CFDA
:1024F00046A25DD9746581D9E0EE0815F4CB46A4F7
:102500007DDC549081DA30F0163CD4E9C5125A4A89
:10251000E5902FC8523E9965D65F48A76CDDBF276E
:10252000A64891DFDA0627C8D894DECC0EAC51D984
:10253000F0EF18162BCF46A266DE44A991DBF0F02F
:102540003817BDCC46A47DDC54DA81DA112E681729
:102550009DE997C814770F562248D28ADE678770A4
:102560008225973AC8850EA9C85F17866DC847A50A
:102570008281D0F20EA9095FA9060BDFC092F8CACA
:10258000931514719CDF4186A8DF78928658B69225
:102590006FCA31E1E2067F71B3928C78AE86765EC7
:1025A00029526A167650B0E021DD784BB147027AA5
:1025B00020543F7346A16DD9942981D8E0EF681665
:1025C000CFCFB6A14DD9645791D9D0EE511AC1CD14
:1025D00056A42DDC644641DBDE15273C55DDC212D6
:1025E000594AE5622FC8523E9965245F48A76CDDC1
:1025F000CFC9A64891DFDA06F9C8D894DECC946F2B
:1026000081D8E0EF681609CF41A66DDCA49E91DA6F
:10261000F0F14586C85F09F1BE2AD8FBCFDF9DEFF8
:10262000DA1CA16E6905EFDFE1BACFDE161ECAB66D
:1026300028AED8A7CADC16A0D3481DB568D4D65F8B
:10264000C192E2798DB506CAF95FD106CD4F45D169
:10265000ADA896C51D792255E886700176602D4A91
:1026600074609213F0AD6445A75F61408C64A978F3
:1026700026BEAD5F75DC4911A01296CA6D7C76C886
:1026800043714A459CDC48A74E18CABB56B9553E13
:102690009903C67515A45FDF078ECD4E9A4E258629
:1026A0000B04F660BADACA881138675D3754C6DFA2
:1026B00028417F3DCE853EBA593E3354FCBEA1E051
:1026C0003D4A3294E1069DEFCCB5DAAECBF1EADCBF
:1026D0000578DC79214ECA6558F5961206A2449019
:1026E000D2D89694597562B8C5A43D4A34B7E1066C
:1026F0009DEFCBB5E4AEC8F1EADC0556D57C214EA2
:10270000D36A82F109BE85F2B5E9D4ACA13ECDA071
:102710008157CB28F150A1E3D4AC9579D0309CF708
:10272000C3416E3D0FC5DCE2F0EF181633CF46A271
:1027300066DE94A041DAE0F128183A8E84C83C00A5
:10274000114050DD1671630751DCF712CDA804006B
:10275000DEA91FF23097F85F0670BD98E9BCDEA3D2
:10276000A23E5719F94CF712CDA8042450DDF87099
:1027700041869F09B660DECA15995FDFA7F3E1B411
:102780000879DEA6E5DE1F04D7CACF5FB8E4F111F1
:10279000C8F16CDD6C87F04860BDA8D4FCBCCFFFED
:1027A000EE299337C35BCF5FB8E4D51147A5455BEE
:1027B00093251B4820EE581567CF86A27DDA942E0C
:1027C00056DC343E45862404B6606FCB954FA24854
:1027D000260C5D333A05B6606FCB955968DF22E071
:1027E0005907C30E4BA77F5A72264EDBCF60511A92
:1027F0009FCC36A3FDDB3465E1DBE0F0281711CC7C
:10280000B6A36DDCA49691DAF0F14586305FD5125F
:10281000DE2915F314A9058C9C65FF702CF1F47763
:10282000F7C2F967BF3E03B326BD5700C035F6CFE8
:10283000EAA8DC8C26A9E5CA9A125ADB643CF64663
:10284000CA7D5C1BA8CC5AA874DF21D948DE2BF4C2
:10285000F51748C9EA12A6A0E416B44829E0661B99
:102860007CCC54A8AEDF41F50EDEFA5F671063D56D
:1028700035A0C9D816E3B2DBA2F5E01BB0CCDEA8C8
:10288000F2DF6111CADEABF4651710C90D63AF52F8
:102890006F9046CBEAF4451799C89600CB63029532
:1028A000701650ADCCB5375B700775EF094BDFCEB6
:1028B00024E85D0F6B5FE56B1D98A1294FDFA23EF9
:1028C000E518D3C8DBF1FADC965F42DB22F465172A
:1028D000C1C8DAF1FADC9641CAA9ADF1681BC2CCD5
:1028E00058A77ADB9872C1A9ADF15A1BF0CCCFB8CA
:1028F00073EF95594FE39341CB30E9F4C1F3E5F41D
:1029000009E0DEE6F6B548D418DC96A22DDAA49EDE
:1029100051D810EE3815C9CE86A11DD9348DC1D934
:1029200090EEB8152CCB86A43DDC712A50DDF271F7
:102930004786D704B6606ECB96BB4CCB89F4CF6587
:102940009F5FD1407BDB1FD2B7BE91E17E1BC9BE2A
:10295000C9947AF3A2FF40E3C9F559076DC85993AA
:1029600091E00883DECA42F4CA65EADD7AA76ECB3D
:1029700077E7DECA42F4CB65F8DD78A76ECBFAE8DC
:102980004FCB21E07F1C0CBFDBF3EFCC050E6CDFDF
:1029900022E05907A6C858936ECB4ECC810629E099
:1029A00028166DCF41A62DDC643AB2481FF2DC999F
:1029B0007E5F96A22DDA9123A65AE0F0281751CC1B
:1029C000B6A36DDCA45691DAF0F1495501E997C838
:1029D000EA4A5BFD2248944631932B42BE126ECBED
:1029E0004DE050DDE4726307F1DC87125FDF937B1B
:1029F000215B926F6145585F0670BD98E91CDEA3AC
:102A0000A23E5719314C813F2C4A869D50DD907073
:102A1000119B0BAE81126CDD180DA94891DFCCB56E
:102A200030AECBF1DECC5CDB58897E8BACB522AE10
:102A30002BF1554AE5B6A94891DFD9653DC8DFA617
:102A4000F6780D64C9DC98F3E308C3DD87125FDF15
:102A500093C5215B938E1979C8BEB5124C5884403A
:102A6000B6460A7D34E09811E712ADA8E4223CC8CE
:102A700091DFDA067ACA7C235677537A5FDF1FF23A
:102A8000C8977A485001264A931DA65AD95F57190C
:102A9000954D46A16DD9640691D830EF581661CE98
:102AA000A6A13DD9543556DCE0F12818AC8E84C877
:102AB0003C009F3147CB9ADFE3063B4BDB51963D11
:102AC00043C0311690ADC965C6CAAE235218945F93
:102AD00051D9F0EF1816DECB66A39DDBD44F01DB96
:102AE00080F0C8176BCCD6A30DDB447991DBF0F0F6
:102AF00038170DCC46A47DDC546A81DADE15273CFC
:102B00002BC946C756DD63B851F7DE1DCE65E9BD5A
:102B1000BAF13D4AA287D4DCFA555917625E59A32F
:102B2000CA4979C31167053EA8B32AB25BF1564A78
:102B300005D1CEA9B54423B38ABE823FF76D18AB49
:102B40004EADB28C37A9A5CAB83D8E2B38633EA6D0
:102B5000894B77B474456A417E3D645A8ADE3DEF05
:102B60004A4541BE9512049B41264ADF3DF1790654
:102B700053716682673DF1B77F19465D70455A6EA5
:102B80004101C409B565F7485ABAA5D4965F9312B6
:102B9000AADAC6820389990EF286DB011760384AE9
:102BA000D1301EDC597F913EE8CF37118BA7C3E0AF
:102BB0006948EA5F5515B49E2F1DD5658F29BCBEA7
:102BC00057878918BA5E98121ADBC80B68B62F1E91
:102BD0006916E55D6B347739A5ED8FBC4B1E691620
:102BE0005F5C6841073EAD566ED8205F6CB0C6E7AB
:102BF00069A2CA49B564514834896918905E99A39D
:102C00009A4C45913649B1F08088299E6D415E3ECF
:102C1000B5F1F7485ABAA5D4025F9312AADAC60EE4
:102C20004989990EF28667011760384A01BDD9615A
:102C30009916C915585E05A2E27305A9324935BA3D
:102C400085D49B5F95A31EDBED498F48ADF04A45C7
:102C500040DC9B12CBDC02C4734842F4501BD46CA2
:102C6000D8166739FBAADEAB91F1848834BFCC3F1C
:102C7000B1291A5D3FA3D78CAC65AC7002F3B129C2
:102C8000E30213CA53479B65D4DD0294D42D2CA1D3
:102C90002CA9C88C376BD870AAF1BC77D1750CA958
:102CA00069E59808EFB81BF1B9D0CF2C44CB2AE0E6
:102CB0006AB1837249F16E296695AF653F8B6BB53A
:102CC000D9AAC9A2F54B8B07DFA9A1EFE5875C6EF6
:102CD0004001DE2957D4D2DAD25FD4D84011A6926F
:102CE00056CEB672A6CE00E17CB5E2AA7AF13A4A97
:102CF000996762DA713EB965D1D947A5834F6E7E77
:102D0000A4C8FAB345D417DC5993C46DEF9911AE3A
:102D1000858CBC0776DCBE124AA281544ECB095F7B
:102D200031DFDE1158936ECBAEAC7F581A1EC91638
:102D3000F95CD9A2284B15A4FC4A91F1EA88079EB8
:102D40009B12EADA0D667FB8065FC906DDDF9F12C7
:102D5000EBDC21C07F795A52A916125C39A2A74B2D
:102D60000689CFA91FF2B2894C9EC9A21F4F0D4CF4
:102D70005FB871EEEB8606CEEA12E832169D50DDA2
:102D8000D160B19FFD5439A3014AE519FC48221EC8
:102D9000C9165358C8226009A7A94FBD065F4D4503
:102DA0004ADBB29640A384E8DEC8A2DF1F8623CDAB
:102DB000D5A4544A0534CFC8CD5FD1ACCBA3C9A6A6
:102DC000F67893572B7FBEDF0706A7CD34A4EBDC44
:102DD0002242E0CABEE1340624DFC8A25ACC705CAD
:102DE000CEA931EF0587CA014BD1E6581EF274DC3B
:102DF000F35541861604B560EFCC0578F4CCCCE3EE
:102E00009E1B2FCF75A2B4E0E09F13D86DEFA51CD9
:102E100091BE0B28B15091E7DEA9055FC908967DE8
:102E20005801284A86E597481FF298BAD45FA66EE3
:102E30005A9816B0DECAE55FD516B27D600148CE5D
:102E400080C4DBC0A7E74F45E2DBF296B9DF12DEB4
:102E5000C2D86DF55719196BB11243A78112CFCAA9
:102E600091E108748F44B21B6CA8A42414CC6CE3C9
:102E700097E42D111298A8D0E496DB53A668CB6591
:102E80004850982DF0292E89EF55C04D939FD4546A
:102E9000FEF18957B68917C86BDF8FE4C31113940D
:102EA000A7CCD843BB5F02625275A29159A3CB4C09
:102EB000E95C2CA95A409C651FBCFAF1594AA53E11
:102EC000DC66A13E7F6553CBCEA698DE663AA44869
:102ED00091E1491CFDAEC861DECCB4A872DA121EC5
:102EE00065178D013660ADA8E4A64FDF033EAFC283
:102EF0008F596808BEDA58F5D7A1A43E5719045077
:102F000029A2FC4B06E2CDA91FF243938CCF3D13BF
:102F10006CDDBF15DFA991F10A8B31C846C756DDBC
:102F2000639E51F7DE1D2816E7CF56A26DDA84BFE7
:102F3000B1D9F0EE181589CEE6A1FDD914AD21D98D
:102F400080EEA8150BCE76A18DD98DDE41DB20F069
:102F5000583B5DCC58355DDB94CA41DA40F18818A6
:102F60002FCD16A4CDDC04F4D1DAB0F1F818D1CD10
:102F700086A43DDC74E6A1DAD70F5719486A99A2F6
:102F8000724C61A49EDA2561C1198ACF46125B7723
:102F900075B3526AB841FC65B8BE79F1ABDAC5AB1E
:102FA0000FBC107E5279F79E4934673DD36D1ED811
:102FB0001D619916B95DF512C264FAB0F548A1F128
:102FC000568842CD4514A7840029094E294E591729
:102FD000DB5D72D1184AEA8F2D09748FBEC5F6AA3F
:102FE00029A2694CEDD556BD5D1E8916E75D0670B8
:102FF0009EDC90F07489528E8A7A035FA8705C9888
:10300000C5800A666E8152766C712534074AC90004
:103010000B560B5F2DE4EA1128227309E59C2FC89B
:103020000D5F2FA0D355F61243A8766BB175089E9D
:10303000A979C85FA96C5A98F6BA3ECA0A5F2DE111
:10304000BC115993600916C4DECA40BD88D46A6EAB
:1030500078166739289AA1D800EF281693CFF6A2E0
:103060000DDA24F2D1D890EFB81635CF06A29DDA4A
:10307000B4E041D820EF481577CE46CF6DD9A4EF04
:1030800046DCF1EF548876BEA7205D6865D1A206C4
:1030900062E1890884CC75140618050A494A968E9F
:1030A000217942CF5E144E296EF5A20691DFC9B791
:1030B000D9AAA9A2754C7557B3170FADC9063E3AE8
:1030C000C9A4DA491429DEDA8B5E511A4CCF5E149A
:1030D000EDA80540494AF22D511AA2CA56A36DDB4C
:1030E000945751DB22827818D7CD06A4BDDCF47C3E
:1030F00021DAA0F1E81859CDF6A44DDC846EDED8B3
:10310000895E69167D5ED9F1F074A59A494A358EBB
:10311000727982CD8B12DEDC46184B8931EF6088E4
:10312000046EC1053EDA9C24AEA995B0E5D4C05129
:10313000B6303EA4817ACFCA91E129162B5DB9F150
:1031400042A5810C4ECB91EF6088C501C9A4754C96
:1031500093C5135110EF3816E7CFE6A2FDDA14CE6F
:1031600021D880EFA81629CF76A28DDA94FD51F7E9
:1031700020EE68156CCB09A2774A6691ADA9BA4AD0
:10318000FB6512BEDD288F39A6186FD83EF1861870
:103190000F01B1E0E279DE67DB799A52C9165E5C15
:1031A000D9A2204B15369E4B91F10B87A49EC9A244
:1031B0001E4B15229F4BA1F109873ACD8813E92FA9
:1031C000172152DDAA71181817CDC9A2224F06FF88
:1031D00027BD91EF0E8B46CF8F17E774CE2DDFA959
:1031E000A13ED9182258C9A4234F647A91D819F363
:1031F000CA6572CD8D17DE2A1C1BCEDAD764C918BA
:10320000C55889F1372A05964748D975F979227149
:1032100079F1574A731AA15600B345D40DDC59937E
:1032200030E845228DD6A16B5AA94ABE39F1E6A2F3
:10323000237E50DD006018E4DE9196A22DDA91AB7A
:10324000634840F0881709CC16A3CDDB04DFD1DB3F
:10325000B0F0F817EBCC86A33DDB74C9A1DB20F1FD
:103260006818ADCD96A42B0063DE75DE20144119DD
:10327000AEE146CF2B08A5E69B4F41EF0F8B45DD16
:1032800063947E7ABCC7B7BC91EFC8861CCFC912C5
:10329000EEDC8D90DEDA1861C916965AD9A26B4D14
:1032A00015325A4A91F14C88B8CCB2136EDB81AD1D
:1032B0004EDB0E605917485C59A3564B952FA94B0E
:1032C00021F0C78744CFD112EEDA1ECACEDA1B61D5
:1032D000C918DB5DC9A26C4D1548514DA1F14F884D
:1032E00060CD4C146EDB84E54EDB11615917EF5D48
:1032F00059A3604C9567A44B21F04287ECCC361360
:10330000260931E3EAA9CAE5F10C39BE8A3F9129C1
:10331000583F59A6233E976C5C700BF1B27770F062
:10332000ACA90CE5330C79B96C3FAF29BA0339A9C4
:10333000F78CAC65C270BBF157CC2DBEE7CCFEEF6D
:103340004616FBD9E1985BCC71CA88489EEFE5161A
:103350006F5F212BD753485629B7151ED1ACC779BB
:10336000CF2AF5520A53CF4C1D5292459D5F48A17A
:103370004ECA655EA1CAFFE12086F7CFD5A246649A
:103380007E8AE1489985C08208CBD1408429EB80B0
:103390002956997DE2A4BCCB98086CDDFAAB1548A0
:1033A0006D5FFC862C793E0EDEDE1D8450DD86943A
:1033B000E4861E5F8C12124A932D847CAC5FF586E6
:1033C0002ADBB296BECAF646DCC8A4DF5719BC6B2E
:1033D000E39619CEF24623DA9EF1E518CFC9B11271
:1033E000DECA16625FDFA2E1C90804DFB692354A81
:1033F0007262A2DAFDDF46062E5FA4A45ADC5DFEEF
:1034000033D88DEFB4B5775BA101DE2915ED50DD22
:103410008494E486B85FA39659CEE59A2FC893DFCB
:10342000DC062CCA93466CDDC71F3F71104DC88C5B
:1034300004AE2949CF4EA9C731AE813E4A455FB699
:103440009B12CADC3EC4EF19CAE12B658250982D4D
:103450006CA8A41CA1A66078A88F70DB72968AA8BD
:10346000C42E65CE3BE582664B50782DE0296D6118
:10347000AF55C26FAB54DCDFF2926FE0D689D5AFA7
:10348000A33E57191D4DC9A24C4B931F766E21F0D8
:103490000D8B12CF8C17EEDA4B9F5FDEA1F10F8BF5
:1034A00020CD8C1789DF9411A6DDEF1D584363E111
:1034B00096A22DDAA42451D810EE381563CE86A139
:1034C0001DD93453C1D9A0EEC815A5CE16A1ADD9CA
:1034D000C44171D919F3C9161C58CB41C73D054EDB
:1034E0009B4FA1EF0F8B6F757001DF29150DCEDAA1
:1034F000D764C918315841A6E02905689A4F9B3E08
:10350000DA6592CD8F17DEDC4A0FDED85B60D91604
:103510005B5CD9A4744C05844B4A1FF2A58712CA80
:1035200074121DDB54B781DB00F0481723CD56A47D
:103530002DDC64A0DED8D664D916FC5848A86739BB
:10354000C581EED92A5FC76BAF703AF1557770AD80
:103550009067F43E27B3D15F89F12E290572D050D0
:103560009C73817AEC7D6801564A05EADF582B1E70
:1035700047869805B460BECAF6F8A048F8B146D4AC
:10358000F1DD29945C4A74D2A20682E1A908067989
:103590003E0EDEDE1DBA50DD86943F86FCDD38949B
:1035A000E0CC1820511630AD6B1B5EBE861F2F6518
:1035B0005A7ED5AFA33E5719214D47A5E44B952D13
:1035C0009A4F91EF0E8B56CF8F175FE0155E984F95
:1035D00091F10E8B0BCF86A27DDA944AA1D900EE31
:1035E00028152DCEF6A166DEB47B61DB60F0A8174E
:1035F0009FCC36A3EDDB2465F1DBD0F0181721CC8E
:10360000A6A35DDB949641DAE0F128180C8E49E11F
:103610005E1952A480FE91EFB6889E6E5005012976
:103620001F0F5F89A28A897470B3B9F5CD77F6034D
:103630007764413E4286D60AB460BECA4E3CD64646
:10364000AA7DAFA84DAADCD14478743ABF19775D42
:103650006E4532CF7514C27F8DA91A89C0154119E4
:1036600090BEA7205D68653BA20671DFBA06925F37
:10367000A5705998F6F63ECAC01D42869251B630E2
:103680004AA880CC7EC842DF75E2BF1E78947ECC0B
:10369000A500624A40BD6918A45D60D14E29649EB0
:1036A000FA15CDADB516C268A1057D007D39B046CD
:1036B000107D29E048112992CFCA81BAB2160CAD0B
:1036C000BA08A2DD56D0574A73C6A156FDBD44D4F0
:1036D000F0DF78928AA6BA976FCA31E17516F101C8
:1036E00065A4630981E4B2160CAD9A08ACDD6AF1F9
:1036F000875E8D031D890D5F35E40111E9920FCAC4
:10370000253E66A4C4651A7684B1C01EEE29810EDA
:10371000B7140DAD6906347DC0025A4A6C40A2064A
:10372000F1DF3965CA51B6304AA880645EC822DF2D
:1037300049C4BAB351182F39B5D90D48B378FC8FA5
:103740004ECA5B49C94A0146C648E65F5719B56982
:103750008F1F35676D4BA757C73E3E19BBCA9EA545
:1037600025DD3FF68FBEE2E00907629EF894FECCAD
:103770008AB1A248FDBD44D429DD0994F1DD1A9F28
:10378000C75C194E9E5406CF8D17DF799E7950DDA8
:103790003277D747166E50056CDD1681D78B91EFC7
:1037A000E587206E8805BEDAD1AB2ED85E60C9658C
:1037B00020BE47A5D17FA526764D41EF7289FECF69
:1037C0006315AEDAB0C150DD3A95B486B05F783D8E
:1037D0000529AFFDCF8971EF5589AACF4415BE8861
:1037E0002D0C244EE24ECF747BBE47A55E4FA57EC6
:1037F000A54A41EF458856CF371319702C00EEDCEF
:103800001FF244BCF2BEDCA6E5DEFC9E39DC0BF305
:103810001A7C9AB8D8F16CDD741B3ED81F62B916B9
:103820002F5A29501636002057BDCE2DD674BDBE56
:1038300047A55E4FA5A45C4D41EF4C899CCF361344
:1038400019702CBEEEDC1FF244BCACBEDCA6E5DE7B
:10385000FCC439DCFBF31A7CD9B6D8F16CDD745D9D
:10386000FC86F48B396598DDA494A829246C1CD6B9
:10387000015F8C2484535835479E8134DECCA2E30B
:10388000491CCBAFC0125E5896965E46227D4EE232
:103890008C11F512E670FC6ADEDCA98D5719EB6815
:1038A000EE12F44A9331777EE95F761691CF04A247
:1038B000BADA93272C7C095FA908CBDDCB94F1CC35
:1038C000924040C8116D5AA4C70B55606CDDC7F912
:1038D00086487EF1C51856CF2414DE48981DB4A939
:1038E000BEDF07060EC1891249E815E64F6D9AB38F
:1038F000E5D4FCCADE1791DD056847484974517963
:10390000B0919FD24BCA838670D7615F7823BE5235
:103910005835F34AB04662066A5F228609C8C4A1D8
:10392000FAD99BB4B2100DAD4508C1DDCB41673D5E
:10393000E2F053C82FDF49942941F8F1115E8DCB95
:10394000188981EEE5873D4C0BD1A72AB2CC60C81F
:1039500053FD398617C1B91E6F6D6D02A00637DFA2
:1039600080068FDFB79243A28226FCEC51EFE68BF4
:1039700020CFD71719702C8AEEDC1FF244BCA25F4F
:10398000821284293A10F9DCA8F3D01AA6CB980841
:10399000184A9307627CCD5FCA6C09BE47A5D5580B
:1039A00041A09B481FF2498B03DFF592DADB7DAE25
:1039B000B6130DADC90627DFBC1283CABB3CDC526F
:1039C000A46941862D07B560EFCC05485B89095F86
:1039D00032DE2E1158936ECB7DD8B2160CADC906CF
:1039E00071DFC950863617E057BD111F6916835D18
:1039F0000492BCCACAAC03066B5F6DB5ADAE931240
:103A00000AA2444C72D8936DDAA22DA3D3A6EFCCB0
:103A100005928B48A5F4D516996E4001E909E58E0B
:103A20008C4B813E4186CA01B260DECA16AC50DDC5
:103A30004D930586BDB6DAF16CDDFC34AB4838FF3A
:103A400079659E5F47A57081A5D8E24B563E996582
:103A50001245181A62091AC2D9DC88F3B01A14CBBD
:103A60009B080BCA43E474D7615F7423DC5258355A
:103A7000534A6B21A206705F188674CA4917334AED
:103A80009A17F3D9CDEE5F1C294AF815673D334FDD
:103A9000B3C80FDF31E36A11C992E66C9E6DEFDDAA
:103AA000B2F2FA8D2E52D22D564A6DF1A2060BE1DA
:103AB000320832DFD8921A4A0D9E29B491F3E1B44C
:103AC000CECA3C47894AC1C6EB489985C0824ECBD5
:103AD000D1406CDDFAE3F948A75F5719F569D212B6
:103AE0000A4A48E2EC481FF2BBBAE4CA0B4707CACD
:103AF0003F7033DA8DF1FB65C3484005D5097DFE83
:103B0000B1140DAD690637DF2B28D150B1F9B7C814
:103B10000BDF7A0834DD23D1564A6A45A20631DF2D
:103B20007A0604497E186A39E6E9F7C8CBDF7618C9
:103B30000CCD15D14BCA83B6B6170DADC906C65FFD
:103B4000A57059980D6667B991DFDA0668B178F10A
:103B50008664BE585A8931DF7A06760E7760564AF7
:103B6000743CA206B1DEFA05905FAC6F5A9825EE60
:103B7000EFC8BB77048E78CAB2488637B89D1EA9B5
:103B8000613E57195269FC12C058F894B3C80FDF50
:103B90007723A25F66AFCE5596BDCD4837B085D4AA
:103BA000995F80126CDD85A1B3C80FDF2BDE521147
:103BB000C992E66CCE45A648F9B845D46F5F5CA7BC
:103BC000EBDA215248DE211E6A6521DFB5927ECCF8
:103BD0007DD0B7100DADC90649DF9A1273DFB24E22
:103BE00062D827F5CB947541D894DECC706CA2C80E
:103BF00091DFD1A8B5AF64929CCAA7F46D56EA5F75
:103C0000F8DABE11B01247A28146D3D8ADEF8906CB
:103C100041DFCD2CF3549D01474F65524286FC0491
:103C2000B5607ECAB6A4D66DAA82CB9FBF5464D1BC
:103C30005EE0B6C2CFDC92F3DA8EC35FAB6B5A980C
:103C400005C1CFC9331E3B657748A001EBCA23CE1F
:103C5000D646AA7D25864E4A5015923D2A03E20695
:103C60000D5F38DA98114CD10D9E4124A24800BB5B
:103C700045D4FFCFD5A27ECAB6F8DC52A4694E4522
:103C80000172D83D60091468C1AE5B3E7606B0DFB4
:103C90000BB04E4AC80AAE44228232DA6011DE10FE
:103CA00060090543CEA9A4E1CB083BDCC993751795
:103CB0000520544DA1EF54893861B1FEFD50564F97
:103CC000D67A404DDB8CEAAEC04DEF4EA93DBCA983
:103CD000141E2965D59EA8F1DEDA93DAB65E624E2F
:103CE0002918EC5FB6384546757CB41A0EADC90686
:103CF000FECA43216EDB9CF478DF2014411920E1D9
:103D000046CF2B08649491D830EF5816F3CEA6A175
:103D10003DD95483E1D9C0EEE81595CE36A1CDD971
:103D2000E4B111D950EE781524CA0429ADDBE4BD05
:103D300031DB90F0D817A9CCE6A31DDB54AF81DBB3
:103D400000F048174BCD56A42DDC64D8E8ADFC8CB0
:103D5000FB65A97041F76F2954B0D267D33EE5B334
:103D6000B1B4E43F31294249D5ABD98CCC65B670AA
:103D7000283DCF751F951767628A40861CDF3892F1
:103D8000264A9317374D085F0A165BCF3612264A2C
:103D900093059E4BD9792290605FC996EFCE4D90E6
:103DA0008756DF5F5719C56BFB126CDD259AAA4851
:103DB00072F19886475FA16A5C98563C9ECE065F7A
:103DC0005A17D3CC1612544A965B4FDB22F05A177F
:103DD000BF5F4E6F7D987E363147827ACB68B6489A
:103DE0003815B73F1003CCA91FF2E2986CCFA71388
:103DF0003DDA546241D820EF481515CE96A12DD951
:103E00004491F1D9B0EED81577CE26A1BDD9D49F73
:103E100052DD39851818C9CDD212184AC58C334ADB
:103E2000A13E8DB565AAB5124C588434B2160CADBE
:103E3000BA0852DD11D1A07916CDA248FDB745D4FC
:103E400001BE0994E6581E58A248FAB745D43FDD92
:103E500029945A4A670FA20642E16908189E091080
:103E60009209DF8306D6015FA2249A535835479EF4
:103E7000813E5ED9CD604B455A517A3068DD678806
:103E80006FCA31E125862A07F5607ADBB46261AE3C
:103E900044E16B08D5A16ED15A4A7394A15600B380
:103EA00045D4D3DD29944A4A51A68356DD6D26A414
:103EB00075039560E670FC4ADEDCA98D5719CB6866
:103EC0002194D7CC0F46C5CA1F1E45862007B56072
:103ED0006ECBAF3376D6015F72242A535835479E96
:103EE00081AE4FCB21E0281627CF41A66DDCA47C04
:103EF00091DAF0F111B426BE8712E6581EE2A2480C
:103F0000FBB946D464DF38925A4A745EA20682E155
:103F1000A9089C5F49206F6885164F5616BB65D46B
:103F2000A8793E0EDEDE1D0850DD869441864EDD0A
:103F30003894E0CC18B674A93DFD098611C1D91E8C
:103F40006F6D0E16C206F0EF181655CF46A26ADD49
:103F5000BD563AA6823ED26DCBBE47A54A57E5BFB5
:103F600026A99245DC656ACAA51F2DDB64FFB1DB7B
:103F700010F06D6544BE612C8F52EF942EA9131E74
:103F8000AF94F54163A640400DAE29B491F3E1B47E
:103F90009ECA3C47C94A01967EAA434C986BC7BC4F
:103FA00047A58780E5366E4D81F17A892CCD7B154A
:103FB000EEDCB8B777A549418F65E4BC8E12144A90
:103FC0009355777E71F17589B8CD6415DEDCB3CB7E
:103FD000CEDA4062766FE2B007FCAE2C4CDCE848EB
:103FE0001FF272BC84CD6115CEDCAEEFDEDA3B622F
:103FF000D918D95AB6A14DD9646991D919F388173E
:104000004FCC16A3CDDB0495D1DBB0F0F817B1CCC3
:1040100086A33DDB7487A1DB20F16818D3CD96A47D
:104020002B00639477DE20144119F4E146CF2B086E
:104030003330111670ADE265C25F58A3F8DE6EC86A
:10404000804828F4438667BE79F1D570ECB02EDC49
:1040500011855AAC52455E1C3B6D5FCF926DD4F218
:10406000E2ACE5A3D9A64C6D844DB6530A68AB9C6F
:10407000035958051ECB89B75C5E24655279AEDCC6
:10408000CB28F150967192DB151E2B9B7F58400573
:104090003ADBB4CC610622F47A1BBE6E78169740E8
:1040A000BD2425C8AAE3D306DBC1693E6F6D0E307F
:1040B0007E50228275089FDF269287E815904F6D0B
:1040C00078FDD99ED57AD494C6E805E64F6D34FDC7
:1040D000C99EC37AC794032B39393CAB853E6965C9
:1040E000D0BE55A3574A66B5A00665EE42860A0CB7
:1040F000B760C2D9D165DEA9A13E7AB1F97358384B
:1041000065469596D66DAA82C99F9B54AF3D5D6D5D
:104110006CEDAEDDBB8204A9B646F619D56DF88B01
:104120002647795F6082425FB8F12D635625A84823
:10413000FF6D48A4D853B42E46587E24BA46067D57
:1041400039063DC0B93E6F6D9A5D4ABDF23E4A45A3
:10415000BFB1B7B09E5596733948085AAE86BFBEF8
:10416000872B2F517B64B046107D35929143A1205F
:104170005768697CAB56F1DFC7230A725835745D06
:104180009975BFA9121E3874F6C0791D6F6D861916
:10419000DD79A2635275549105A3594AB51F1A6976
:1041A000224E7A95839E0AF1AE29F4462FA99640B5
:1041B000DD65BCCA6D49A129D55932A4823ECB67C1
:1041C00054BE60A76DFF7D5380F6201C164411CFAE
:1041D00086A27DDA9444A1D900EE281513CEF6A16B
:1041E0000DD92473D1D990EEB815B5CE06A19DD9BD
:1041F00091657A7140BD88D4E9C82670DD98A8CF52
:104200006F4C1A4EB7542FC846C756DD63B251F7EC
:10421000DE1D2816DBCF56A26DDA848BB1D9F0EE05
:1042200018159DCEE6A1FDD914B921D980EEA815A7
:104230007FCE76A166DE54A481DAEC5F338616DF8A
:10424000AB405D706CB8AEDC23749579AD0EB95996
:104250004C58844CB6460A7D69066BDF42D13EDE7F
:1042600075F4B046107D3194914169928FCAB6FAC7
:104270007FDC42675A1B4ACD67A487CA6752A16E8A
:10428000F85B391A964805053F9975C3B046107D0D
:1042900031946B4169928FCA9059BEDC01F3379417
:1042A0005F41A1205768A5266FC842F36A1A9F573D
:1042B0005AA79ADCB3264CDE3BDF2BB44379AE0E13
:1042C0004EDE97D512BDF2AE39CD2451B6304658E8
:1042D0007ECEDEC8A2DF544538CBB9A64C5884C088
:1042E000B6460A7DC90677DFD8A6DFDE16E44BDFC7
:1042F000ADF1D718E0C996A22DDA8D6EDED8D5645F
:10430000CA96149ECDF1DEDC490F50DD4E5F571981
:104310006C5CC1FFF12993832F7D954DDA658ECDBD
:104320008F17DEDC4A23DED8D45FD604ACCD8A12E8
:1043300066DE0C0356B9973E91B450BFC9A29F4D9B
:1043400091D56F4130F1181897CD59F1DF78063FBC
:104350009666913E21B493059760E6CA05CE1F4D3F
:10436000764557194456C788E67F7E9F4EDBDC5F53
:104370005917B85F09F9C92F05E81F4D1FF27A8D4B
:104380000ABED9F16CDDF6B31DA97C44C916CF5A1B
:1043900047A58F51CD7435A891EF8A8992CA7819B3
:1043A000DE299337C768923E514520BED9F16CDDB6
:1043B000F685411625949A7B38BE96A22DDAA42E56
:1043C00056DCE0F128180BE997C88AE0947BA6DD5B
:1043D000EF1D584319E16FF18E2933DA171670ADCE
:1043E000AC6962CF08156CDD83EED66A224FD80621
:1043F00060BED140E670AD72DC62ABE1D20877DB23
:10440000D9F1F6780D2274CC9389E50887DDC29640
:10441000EE291D3CD66E3DE3CBB084DDC494A02BC9
:10442000D9C132A8853E178629C847A5796A06CF23
:104430005F89913E751B39E8B1A53C08948393F6DA
:10444000F0EF18164CCB86A43DDC93DFBF68998152
:104450007276D2CFF5134A2A79B991ADE53EF26969
:10446000D4BEC8226D0906F6CFD83AEF8216EC45C5
:10447000DA1CF3DE0CE0D3DAAEF1CD659E6CB11838
:10448000EF409143DFD8A2EF7216B3CFCB2CF1549B
:104490001202C3DA953E2BB76059E8083DDA540E94
:1044A00056DC91EF8A8926CD09159E2AF14C50DD04
:1044B0004266CA65BCCB59A3A04D95291F4D21F07A
:1044C0008989A2CFF313DEDA3ECB50DD107DC91609
:1044D0006C5C47A513689343FC6899816A75D0CAE0
:1044E0001833DF5A8F25D8A9F4493B6543BAFDF14B
:1044F0005FD99261D4DCF255511A7BBEC9A4A04D9C
:1045000077CE91DAF0F1163CD6E965A86DFF7D9B78
:1045100080F6201C164430BE79F10C4ACE420106CA
:104520007C41C916645A47A55C500D08D7B8A0DF76
:10453000D965AA71C13886CE07121DA9A6F3D01A73
:104540000ACBA808F8CC0EC4D7CCA13EE1B4C679FA
:104550006396E074E8B5CBDC98F3B31ABDA9D594A3
:10456000E9CC10E6CEA9A98DD1AC46DBCB3C4129E4
:104570001AE4D9DCFBF32A7CE6DDC494A32BD99F93
:1045800032A8853E178687C847A5796A066D5F8978
:10459000913E751B9BE8B1A53C08942593F6F0EF7E
:1045A0001816AACBC6A3FDDB343BE1DBE0F02817ED
:1045B0005FCCB6A36DDCA42491DAF0F157193F7CEF
:1045C000C134673DF904DED8D564CDB5C5AE71D22E
:1045D000DED94AD5CED9D764CD745248C8F1F64F4A
:1045E0008E11258991EFF08778CFE113E774B61B20
:1045F000DED8BA60D9165C5CC03CBF39911C4AA9B0
:10460000B84833B3A6BEB33F1F2955EBEDA9DC8CE8
:104610001AB1359EC9A2094B1588F24B9A89BA7C0A
:10462000A2BEC9A4764AD7E7F248556D9EA46A0097
:1046300012603A4A2F3AE556BAB306D4C65F0992D9
:10464000AFCA12D2C2D85979A2901DA14AD1AFDE09
:10465000C6C40F4032F48B9C0B5985012279565AFF
:10466000F7B8CD8C0319A85FFF126CDD255A864878
:104670003EEF8616F95FBE129FDAD6EA21483579F9
:104680007E90B5A198E08FDEA61C6F40DE2D1786C8
:10469000265F47A5FE8031961A46667D8DE3C511DB
:1046A0009512085840BAF71CCEAD4386ECDF18923D
:1046B000EBDA212216526A69A084B99E18A69FDE01
:1046C000D6C81C5E64659D7B78CC5112EA29292CE2
:1046D000EAA90E5F5A175CCBA0082A2A593D7AAA8C
:1046E000453E9216BDCF2F38B546E57E28660A5F57
:1046F000C90663DFEB9211CA09F6CB56B77D00A459
:1047000081CDD8A4FFDC3694C148053E0BB7D15902
:104710000808E8DD0E3D57B99B1E0915045F453EAC
:104720006E29FD22B045107A3791D542BE124AA5B6
:10473000807E3EC882DFCB06ABDF943531DD9B291E
:10474000494F2964628B4AAA983D464A5142835692
:10475000DE6B1AA2985194301EA860147AA6423ECD
:10476000896532BE47A53480BEEA76CA085F29E46F
:104770008B1169928FCA97614D4F45538B062DDF80
:104780001E1080097D84B046107D32DA71118012CE
:10479000E2581A8CC9B412F4DE1A1DCBD894DECCC0
:1047A0006DA09246EE7D0CDA75116D2C9354C9887C
:1047B00069B451F39DB4D6BE39FBED29155D50DDCA
:1047C000C5958208ECDD60D100294FD97889E26E69
:1047D0006D4515B49BF1622C9939EF65C54D14B345
:1047E0003D7A9AA53F7576CBA64872EFBA166FCF81
:1047F000D8A2ED4A2CF4C8481FF21FBCC5DD619455
:10480000502944115D8943AE820822DD56937CCB4A
:1048100038857CDF943E0197FF91C2F7F029938B96
:10482000C75A1FF2A58D28CAA93E6EDB492BDED8D8
:10483000D664D916F25848A8EEDC4B3DDEDAD664D1
:10484000156696BEBEFB0D7777A9E16714425D65DC
:10485000F8B0833F01295F79BF65028A1E8648C888
:1048600064A29ADA9CF213D86DEF6A9A5D5B380104
:1048700006CA3EF2FA52C66957196866EE12F44A41
:104880009315887E095F7A08A8DD4ED1E6CA1E0E10
:10489000DA52A66921861BCDD5A480DF377DF54786
:1048A000C27A57E4BB11ADF1207B63ACE7BFF0EFF8
:1048B0001816ADCF46A25DD9742981D9E0EE08154E
:1048C0006FCED6A1EDD98D5271DB50F0981791CCF7
:1048D00026A3DDDB1447C1DBC0F0081713CC96A379
:1048E0004DDB847151DA30F1181835CD84C83C00A5
:1048F000E76651FF09F22744F7E084D06CDD01FD43
:1049000050DD4E5F2AB1F77273F12177562150DDE9
:10491000F27FD1A81DAA13D18634670D75A903644F
:104920005179769EC5F2F229EECD2AA90F5F7A1B46
:10493000EE5F54A77B4AD01A82489EEEE615F35FDD
:104940009212EBDB22D7E348C949349BF7BEB2177A
:10495000AF3D95D14FCB23E05C078B5FC4A3FADB5F
:10496000C5815EA9213E1A8645CF74A27B4A596E45
:10497000FC52C469E686C1A14AD18FDEA6E86F4029
:10498000368F7A8AD4AEF23511DD39851879C14E69
:104990007070707062F150779659F46DA85AE919E9
:1049A0001A720991AFC9E7272DC9596AA2A1C44259
:1049B000322D9ECBD6373CCB84E0FAB188C8FDF1CE
:1049C000E07B20C457B9C82D58E4D5118E12144A83
:1049D0009345D27E9A896A79D6CA2A126CDD54F33D
:1049E000DCA5A23E57196D6AA6004C6383E7AEAE04
:1049F000007440660B584105E81886EE4F4C924F04
:104A0000E7862D017660D74A14EDF667953E01B32F
:104A100083B5803FF0295E3910484E3ECC938F42DB
:104A20006112BF75F60989487EEFC616A1CFD4A2E0
:104A3000DB4A2832CC481FF21FBCCF5F68A48FDC52
:104A4000E44088483EF18618255FA125574DDEB821
:104A5000D5AFA33E5719CF4D47A5306B93C902413F
:104A600073F4583B9CCA97D06D0752D481D8E0EFBD
:104A700068167DCFB6A14DD964E991D9D0EEF8156D
:104A80001FCEC6A1DDD9F41701D960EE8815A1CEDD
:104A900045A53E768194DEC8F05FF7DC231165A260
:104AA000EF291DACCECA937569794251B82EE0CA80
:104AB0008D24DEA919F3681877CD96A44A4A932B62
:104AC000146C298D1786C8CA03368678B52DCC6636
:104AD0009985CA94454396A22DDAA44A56DCE0F0A3
:104AE00028171DCC46A47DDC547A81DA30F0163CC0
:104AF0002EE9C5125477F0F6D264A077CD9CB6AA01
:104B00008112A7CC9391146C075FCA18635F00925F
:104B10005118948381D8E0EF681615CFB6A13DD91E
:104B200054B156DC0D5F37DCD71109928278B5CFCE
:104B30007E714263A979790109945A4A6732AD5668
:104B400073E14586A909B660DECA0B44DECA19F3D3
:104B500058184DCD86A43DDCA4CB93FEEF15D58629
:104B600019DD47A5F06EFEE63966D95F5815B1CF5D
:104B700086A27DDA94E452DDA3831817A3CCB6A3F2
:104B80006DDCA41091DAF0F1681747E997C8EA4A9A
:104B90007BBF35489D8BD89E1C490105544AE60EC3
:104BA0003148D95F9208A8CADB36A7CA786251D9C2
:104BB000F0EF1816ABCF46A25DD9642B91D919F34B
:104BC000C918A758A600465869F90EBD013E37948A
:104BD0002F41AA6C5C98A5566FC8513E9965DA9E24
:104BE00069F19035C6050EA9933EC9182C5E29F1CE
:104BF000D7291210CEA91FF2FDBCDB0E781A9F52E6
:104C0000D60808DC58F3801A2FCBF2380378192025
:104C1000DD6691F10E8536CD8D11DEDA461DD6208A
:104C200091F10A852CCBC9A2C14F15BA3A4F12F4A3
:104C3000D9185658C9A4C14F05A89D4891C0C91894
:104C4000835F41A67DDB94D551FF20F05AA961CD49
:104C500076A4ADDCE4C631DA90F1D818C3CDE6A471
:104C60001DDC74F0A1DAA1EF0F85EACFA816EDA83C
:104C700014067ED8F363CB9C31AEA9A23F4E759F3C
:104C8000B3180BADD90806CDA816600993194D6F5E
:104C900010EF38162BCFE6A2FDDA140A21D880EFE8
:104CA000A816EDCF76A28DDA943951F720EE68156B
:104CB000A8CB86A43DDCA42593FEEF1529165C5BEA
:104CC000B9F14B9A7F8ADEC831EF2B8A5CCFA816E8
:104CD0008760DE23CED8F363E8E44ACDAB16EEDA84
:104CE00067E4C13EA1F12B8AEC9EC0946CDD98C9AB
:104CF000D7C820EE281639CF41A6DEDA66F8CED81E
:104D0000F363D2A08B2941A6EEDA650E7ED8F0635C
:104D1000DBA08D29D6481F3C6588BE4C013E2ADFAA
:104D2000DA11C994DEDA6522D11691F1298AAECF63
:104D3000A916EDC005A6BE4C91EF0A85BC3CC9A4DE
:104D40001F498DD641DB20F0583B45CC5835EDDC72
:104D500024C2B1DA10F1D916B85BC9A23D4E1D4884
:104D6000CFB9F1EF288A96BEA86B589805ECDEDA29
:104D7000D75EC916AB5BC670DEDC647EDED8F0633E
:104D8000D8FC02CD9616EEDA648CDED8F163E19899
:104D9000959EC9A21F4914EADEDAD25E481671CF89
:104DA000D6A2EDDA943551F720EE6815B4CB47A5BD
:104DB000DB6F0D901FB9F1EF2B8A4ABEA4625898A1
:104DC0000540D07A22525519DB7847A5B76F740099
:104DD000A1DB20F1681819CD96A44A4A133E50DD94
:104DE0009584D206EACACD37EC4A93BC4106095FE6
:104DF000C906FCCACD37564A1578D7C89A6D5719D7
:104E00008478B83D564A0586A65F51524786E153DD
:104E1000B82EE0CA9381DA6F04F23D54D10996604E
:104E2000E6CA64B291D830EF5816D5CE45A5E26FE8
:104E300018D5CEDAED625917E35AD8F1EEDCE23A32
:104E4000DEDAEE62C918185BC2FEF22991D9B66F9C
:104E500060F0A8173BCC36A3EDDB24C9F1DBD0F022
:104E60001817BDCCA6A35DDB94FA41DAE0F128184F
:104E70000870CBF1E55E95832ED9FF60CB6AFECD3D
:104E800095156EDB6081DFA991F1A68AFCCC9415A3
:104E9000CEDBE39601FF09F2A915745C3F25873943
:104EA000EC8CD5AFA33E5719754AD2F7E777174F69
:104EB000C7673F44EBB394BEFB3F8F3048936CA968
:104EC000E48C8E6C20700BF152778D2C4CA9DC4554
:104ED0001B6581BE0C3F524AE64811489C4BDD657C
:104EE000EECADB36534AE67601489C4BDD65E0CAE4
:104EF000DB36544AE66431489C4BDD65F2CADB364A
:104F0000554AE69221489C4BDD6504CADB36564A79
:104F1000E680D1489C4BDD6516CADB36C7DA10F255
:104F2000CAA91FF2DBAA6CCAF807BEDAF92FD5A40A
:104F3000A53E5719A67B29A2DC4B10D6CAA91FF2A1
:104F4000DBAA22CF3613E93619A950DDA383146BEF
:104F500082BEA6F90C7767B7E0670D4618B3ACBE02
:104F6000963F00326F4BFCA90B8C4E6E7EBEFAF161
:104F7000A9770F93D667A28AD60EE4D7FD126CDD0F
:104F800025B6D5A4A53E5719207BC29EFAD6398EE8
:104F900050DDB195D47202BE47A5066E7A9C3FD80B
:104FA000705FD47230BE47A5F06E7BAA3FD8805F99
:104FB000D47226BE47A5F06E7CB83FD8905FD472FD
:104FC00054BE47A5F06E7DC63FD8A05FD4725ABECE
:104FD00047A5F06ECF417CDF526E1754BCCFD01383
:104FE000E936190350DDA383A916725CC2FEF229CB
:104FF0009365CC6C71EFE48773B3DDF16CDD17DA88
:105000003ED8AB60D47292BE47A5F06EC8ED31A514
:10501000833ED47280BE47A51B6EE58A8C4B9C4BA9
:10502000DD652CCADB36BEDA582BD5A4A53E571950
:10503000A27B29A21D4B10DACAA91FF2DBAA78BEF7
:1050400029FDD02910A8CAA91FF206AA0EBE2DFE5E
:10505000D02910BECAA91FF206AA3ACFD513E93645
:10506000198150DDA383A916F55CC2FEF22993FBDA
:10507000CC6C71EFE787FDB3DDF16CDD17581DA92E
:105080008047BB650FB3DDF16CDD42AE3ED8CA6030
:10509000D47206BE47A5F06EE508E44B9C4BDD6577
:1050A000AECADB36BEDA40A5D5A4A53E57193C7B77
:1050B00029A21A4B1058CAA91FF2DBAADCCFF4139D
:1050C000E936192350DDA383A916745CC2FEF229C8
:1050D0009345CC6C543EAF71AABEC2FEF229934BED
:1050E000E36C573EB77294BEC2FEF2299379E36C2B
:1050F000543EB87386BEC2FEF229936FE36C71EF23
:10510000218772CF9013E93619E950DDB983A916CA
:10511000CA5C39A2394B10FACAA91FF2F1AA7ECF94
:105120009513CEDA6227D5A4A53E5719847B29A210
:10513000504B10DECAA91FF2DBAA5ACFEB13E93697
:1051400019A150DDA383A916EB5CC2FEF22993DB03
:10515000CC6C543EAC7424BEC2FEF22993C9E36CFD
:10516000543EAD6F16BEC2FEF22993FFE36C71EFA1
:105170003F87F9B3DDF16CDD175C38649C4BDD656E
:105180008ECADB36C5599A4701F79C4BDD6551CF76
:1051900086A27DDA9404A1D900EE281553CEF6A19B
:1051A0000DD92433D1D990EEB815F5CE06A16ADD1C
:1051B0006D9738649C44DB65B6CA94254318B42DBA
:1051C00061DB60F0A817A9CC36A3EDDB245FF1DB2F
:1051D000D0F018170BCCA6A35DDB944841DAE0F1C0
:1051E0002818E28E56A32B00635E72480D5FCA0634
:1051F00060BEB5123F9D76FEBC7A02635175479D35
:10520000A66C5D989191AB7E9743C918D05A59A36B
:10521000394D06F3DEDA6E63D3659ACD9415DEDC84
:10522000E32436AF8A3ED472BCBE47A5066EE5CFF6
:10523000D5A4A53E5719A47B28F1CE2905AC474833
:10524000948E5A7524BE39F1DEDA864A465F2D52B5
:10525000CB65C2BE4BD1DE2915B936468A7DD472E4
:10526000F4BE47A5066EA1873EA99C4BDD6560CACA
:10527000DB366F994E82D5A4A53E5719947830D469
:10528000E22D0510824D21F0A68A9ACC92156EDB94
:10529000E3945DAD253E32697670ADF15C777D9E1D
:1052A0003FD882EFD8862DB3DDF16CDD2D88A9487B
:1052B00072EFBA16CB5FC2FEF229932FF66C053E51
:1052C00052B9DD592808BEDAE8CF2ED87564D472F9
:1052D00044BE47A5066EE5372EA99C4BDD65D0CAB6
:1052E000E136BE29F505D5A4A53E5719447B29F121
:1052F000CE29101ECAA91FF2F1AAFEBE5DF1564AC0
:10530000E6902FD8A05FADD77211C2FEF229939B11
:10531000F66C053E49B60959D808A429EBF92CA921
:105320009C4BDD652ACAF436A429E6C12DA99C4B05
:10533000DD653CCAF436DEDAD13BCED85E60B365BB
:1053400030BE47A5EA8010AACAA91FF2F1AA2ECF43
:105350008312CEDA5054D5A4A53E5719F47B29A266
:10536000214A108ECAA91FF2DBAA0ACFF112CEDAA7
:105370003E70D5A4A53E5719D07B29A25E4A109253
:10538000CAA91FF2DBAAE6CFA713E936196D50DDD3
:10539000A383546B85BEB112DECA0DB86FB943F555
:1053A0004A1552DFA93EC0CA86693EA99C4BDD65FD
:1053B000BECADB3665A7A4F8AFA91799688CE7A920
:1053C00013E0204A9351146C1FF271AC1E9C79A11A
:1053D0004C4B47D250DD5B83746B58706BF1F077A8
:1053E000C307FD67433EFCB3A9B98D3FA02959C14E
:1053F0000BAEF68C9B65037041F87029F01A386784
:10540000733EBFB377BE6E3F204A939F146C055F17
:10541000CA185D5F8B126CDDCF3CAB4892F1A88659
:10542000E25F47A5A86E7B26DFDA805F0B8620CA85
:105430000336554A06A62148D35F5719767BB11229
:10544000DFDC14429C481FF293AAB95FC8A49D4AAE
:10545000AFC58FBFD35F5719127BC9A4D24B475E2C
:1054600050DD5B83C918185C8B126CDDCF48DEDA27
:105470009060546B66BEA6F90C77679BE0670D469B
:1054800018B370BE963F00326FA7FCA90B8CFE6E5E
:105490001B70FBF1F97708773667AB3EC2B35C5FF0
:1054A00047A5B96E21A42CD7D15FBC233C535835F6
:1054B000564A1B38DBC2D35F5719E17BD512D0E7C0
:1054C00045C02DD7A16B5AA9305FDDA0E1D847CEEA
:1054D00050DD5B833E8657CD1612204A9349146CEB
:1054E000075FCA188B5F8B126CDDCFCEA94892F193
:1054F000C886305F47A5A86E79F8DFDA605FB31918
:105500000E015660BF5950C89C481FF293AA8ECD19
:10551000D013204A9381146C91F1E187DE5F47A597
:10552000A86E05B0C54BD35F5719607BC9A4F84B73
:10553000C8D131A5833E0B8636CA2636204A93ABA6
:10554000146C91F11B87845F47A5A86E05DE8D4B17
:10555000D35F57191E7BC9A41D4BCBBB3EA5833E11
:105560000B866CCA2636A029E9842CA9D35F57196B
:105570001F7B8B126CDDCF52DEDAAD600B8670CAFA
:105580000336DEDC22879C481FF293AA0CCDD7138A
:10559000A129F47A2CA9D35F5719F57B8B126CDD06
:1055A000CF844666D35F5719E27BD9A2174B9EBCC6
:1055B0005A89A1EF03873F49B8016EDC3EBFDEDAAE
:1055C000CB6059176C5C59A3054B9559F04B21F0F2
:1055D000F687C2CCE3136EDB2EDB4EDBC1605917BE
:1055E0004F5C59A30A4B9575F54B21F0FB87FECC18
:1055F000F8136F2986354EA9D35F5719B67BC9A416
:10560000194B470250DD5B83C918B65C8B126CDD09
:10561000CF34CED8CE60D29C01AEC9A41B4B96FF2E
:105620009C481FF293AAA6CDF713A129EBC12CA980
:10563000D35F57195B7B0FF1CC36F7DB9C481FF229
:10564000B8AA01BEF712CDA804069C481FF2B8AA5A
:1056500013BE19F1CD37F7B7904812F45719736696
:10566000C03CAF390EE4C4C8BCDFC918835CD9A400
:105670004E4B25E0AF4B223E0B8674CA1236EEDC51
:105680005E83DEDAE9600B8686CA1236EEDC608D58
:10569000DEDAEB600B8698CA1236EEDC629FDEDA49
:1056A000ED600B86AACA0336DEDC77A99C481FF2A0
:1056B00093AA32CDEB13204A932D146C91F1EC8711
:1056C00083BE2A00D02947C650DD80838C65AAB4EA
:1056D0003BF1204A9341316CD35F5719967BC9A4A3
:1056E000544B47E250DD5B83CCB5E2AECBF1DEDC60
:1056F00073F3AC48FFB548D468DFBB12DECA1DECBB
:1057000043899C44DB6508CAD024E52E9399466EF4
:10571000226F4F4584CFD313DEDAEA1DC65E3A4EC0
:10572000D173B1BE47A5E97DD3E94EDBD2645719E9
:10573000D073C2F7F02993A3C75A2C1F57192D789D
:105740002A3EE92F17A550DDEE725C46CDBA47A57B
:10575000767093C720681E1FD06B54CA51386CDD19
:10576000E945598898425719707947A5416186AE35
:105770009C481FF293AA845FA7685D98A5FCAC487B
:10578000A1DF7298729EC7506F3D051AB04B948E80
:1057900089751F6140014B09107FCCA91FF29D9AAA
:1057A000AA9EC9A44C4B1041CCA91FF2419825B820
:1057B000DBF16CDD1EA6AC4892DF5719A479CDF75A
:1057C000EE2993572F7D1FF23194199EC9F66CDD97
:1057D0009DF6DDA991F10D8B149E47A5F4674E1F30
:1057E0009C481FF2A4AA145FA7685D98B56CAC48EA
:1057F00031DF7B98FB9E47A5014E101DCCA91FF2FF
:10580000E29880BA33D1504A735EA10691DFCBB5DE
:1058100019AA03D16CDD9831F289D35F5719457B02
:10582000D9A46F4B05B64E4BD35F5719777BD9A4DC
:10583000714B05A04C4BD35F5719617BD8A6DFDEB7
:105840001648CEDA2660C9185C5C8B126CDDE06A03
:10585000CEDA805FC918385F8B126CDDE078CEDA63
:10586000995FC918E35F47A53E5608ABAC48FFB542
:1058700048D4F2DFC441CF3F477850DD5B83C9187D
:10588000ED5DB83D204A9313056C9D5F0B8680CA81
:1058900012360A4A3D94D1641FF253A46FCABAF17A
:1058A0005D5B756CDDAD3A1E0B86A4CA0336767857
:1058B00047B050DD5B83B1B4397147A5057D0D9CC0
:1058C00057BD681ECD6ADF9E47A5E44B12295D894E
:1058D0001FF2A58759B847A57670934F13485A1EF3
:1058E0003B860C09B660DECA06D957B9A42D0B86D3
:1058F000FECA03366CDD8FE7DBAD1FF261ACC79EDD
:10590000C0F5DEDC61014EDB6E635917D75A59A32F
:10591000BC4EEBF7B867733E3FB36BB48E3FD129F3
:105920005C0F51A3243E408649CF38A2DD4A10C205
:10593000CAA91FF2F1AAC05F28A2CFDAF43CD5A40D
:10594000A53E5719EC7BB112BECAF6CA5ED9CD602E
:105950004B4527CB2EA668DD67AED5A4A53E5719CB
:10596000C87B4F707D988183B15F033E488BB7A899
:10597000CBDD6DD994E551D9F0EF181663CF46A26F
:105980005DD9741381D9E0EE081525CED6A1EDD9E5
:10599000040131D970EE9815A7CE66A166DEA40C7D
:1059A00091DAF0F15719DB78C134673DF06DDED83C
:1059B000EB62CA96A49EA9A2404E755BB3180BADCC
:1059C000C9064C6D78056CDDDEEFDFA991F1238906
:1059D000D29E47A5356F0546844D928E4279D0CA36
:1059E0003437E1795D1550DD6A8421B4E2CA10379D
:1059F00026780560874D298D6694F4CA1037765C49
:105A0000C1C19F71E15319185E5A59A3354D959D37
:105A10000B4D21F0218994BEC9A4384D058C844DCD
:105A2000938ECA7AE4CF90156CDD020D7266413E0A
:105A3000D9651A497018923E05A8894D9D758979D6
:105A40004ECA1037C6780AA2CAA91FF2DBAABA91B9
:105A500089A2364D93C1076FD9715345DCCF8A12A5
:105A6000EDC605F09D489643DD6564CA9639600928
:105A700093E54D6F21F023897D9E47A5716F95EDCC
:105A8000844DDD2D281649CF56A266DE541F81DBDA
:105A900000F04817F4CF0015CEDACF9FD66E885BA2
:105AA000C91A3A7147A5D37FA5386C4B41EF7C8763
:105AB000F0CF7D13AEDABAB550DD3A95B486C25F49
:105AC00029A2AB4DF554104D9985C0824CCBD140E5
:105AD0006CDDFAE57ED847607916ED5C09A2964B3D
